{
	"contracts/BalanceChecker.sol": {
		"BalanceChecker": {
			"abi": [
				{
					"stateMutability": "payable",
					"type": "fallback"
				},
				{
					"inputs": [
						{
							"internalType": "address[]",
							"name": "users",
							"type": "address[]"
						},
						{
							"internalType": "address[]",
							"name": "tokens",
							"type": "address[]"
						}
					],
					"name": "balances",
					"outputs": [
						{
							"internalType": "uint256[]",
							"name": "",
							"type": "uint256[]"
						}
					],
					"stateMutability": "view",
					"type": "function"
				},
				{
					"inputs": [
						{
							"internalType": "address",
							"name": "user",
							"type": "address"
						},
						{
							"internalType": "address",
							"name": "token",
							"type": "address"
						}
					],
					"name": "tokenBalance",
					"outputs": [
						{
							"internalType": "uint256",
							"name": "",
							"type": "uint256"
						}
					],
					"stateMutability": "view",
					"type": "function"
				},
				{
					"stateMutability": "payable",
					"type": "receive"
				}
			],
			"devdoc": {
				"kind": "dev",
				"methods": {},
				"version": 1
			},
			"evm": {
				"assembly": "    /* \"contracts/BalanceChecker.sol\":172:1829  contract BalanceChecker {... */\n  mstore(0x40, 0x80)\n  callvalue\n  dup1\n  iszero\n  tag_1\n  jumpi\n  revert(0x00, 0x00)\ntag_1:\n  pop\n  dataSize(sub_0)\n  dup1\n  dataOffset(sub_0)\n  0x00\n  codecopy\n  0x00\n  return\nstop\n\nsub_0: assembly {\n        /* \"contracts/BalanceChecker.sol\":172:1829  contract BalanceChecker {... */\n      mstore(0x40, 0x80)\n      jumpi(tag_1, lt(calldatasize, 0x04))\n      shr(0xe0, calldataload(0x00))\n      dup1\n      0x1049334f\n      eq\n      tag_3\n      jumpi\n      dup1\n      0xf0002ea9\n      eq\n      tag_4\n      jumpi\n      jump(tag_2)\n    tag_1:\n      jumpi(tag_2, calldatasize)\n        /* \"contracts/BalanceChecker.sol\":289:338  revert(\"BalanceChecker does not accept payments\") */\n      mload(0x40)\n      0x08c379a000000000000000000000000000000000000000000000000000000000\n      dup2\n      mstore\n      0x04\n      add\n      tag_7\n      swap1\n      tag_8\n      jump\t// in\n    tag_7:\n      mload(0x40)\n      dup1\n      swap2\n      sub\n      swap1\n      revert\n        /* \"contracts/BalanceChecker.sol\":172:1829  contract BalanceChecker {... */\n    tag_2:\n        /* \"contracts/BalanceChecker.sol\":389:438  revert(\"BalanceChecker does not accept payments\") */\n      mload(0x40)\n      0x08c379a000000000000000000000000000000000000000000000000000000000\n      dup2\n      mstore\n      0x04\n      add\n      tag_11\n      swap1\n      tag_8\n      jump\t// in\n    tag_11:\n      mload(0x40)\n      dup1\n      swap2\n      sub\n      swap1\n      revert\n        /* \"contracts/BalanceChecker.sol\":589:1010  function tokenBalance(address user, address token) public view returns (uint256) {... */\n    tag_3:\n      callvalue\n      dup1\n      iszero\n      tag_12\n      jumpi\n      revert(0x00, 0x00)\n    tag_12:\n      pop\n      tag_13\n      0x04\n      dup1\n      calldatasize\n      sub\n      dup2\n      add\n      swap1\n      tag_14\n      swap2\n      swap1\n      tag_15\n      jump\t// in\n    tag_14:\n      tag_16\n      jump\t// in\n    tag_13:\n      mload(0x40)\n      tag_17\n      swap2\n      swap1\n      tag_18\n      jump\t// in\n    tag_17:\n      mload(0x40)\n      dup1\n      swap2\n      sub\n      swap1\n      return\n        /* \"contracts/BalanceChecker.sol\":1150:1827  function balances(address[] calldata users, address[] calldata tokens) external view returns (uint256[] memory) {... */\n    tag_4:\n      callvalue\n      dup1\n      iszero\n      tag_19\n      jumpi\n      revert(0x00, 0x00)\n    tag_19:\n      pop\n      tag_20\n      0x04\n      dup1\n      calldatasize\n      sub\n      dup2\n      add\n      swap1\n      tag_21\n      swap2\n      swap1\n      tag_22\n      jump\t// in\n    tag_21:\n      tag_23\n      jump\t// in\n    tag_20:\n      mload(0x40)\n      tag_24\n      swap2\n      swap1\n      tag_25\n      jump\t// in\n    tag_24:\n      mload(0x40)\n      dup1\n      swap2\n      sub\n      swap1\n      return\n        /* \"contracts/BalanceChecker.sol\":589:1010  function tokenBalance(address user, address token) public view returns (uint256) {... */\n    tag_16:\n        /* \"contracts/BalanceChecker.sol\":661:668  uint256 */\n      0x00\n        /* \"contracts/BalanceChecker.sol\":680:697  uint256 tokenCode */\n      0x00\n        /* \"contracts/BalanceChecker.sol\":743:748  token */\n      dup3\n        /* \"contracts/BalanceChecker.sol\":731:749  extcodesize(token) */\n      extcodesize\n        /* \"contracts/BalanceChecker.sol\":718:749  tokenCode := extcodesize(token) */\n      swap1\n      pop\n        /* \"contracts/BalanceChecker.sol\":783:784  0 */\n      0x00\n        /* \"contracts/BalanceChecker.sol\":771:780  tokenCode */\n      dup2\n        /* \"contracts/BalanceChecker.sol\":771:784  tokenCode > 0 */\n      gt\n        /* \"contracts/BalanceChecker.sol\":767:1004  if (tokenCode > 0) {... */\n      iszero\n      tag_27\n      jumpi\n        /* \"contracts/BalanceChecker.sol\":811:816  token */\n      dup3\n        /* \"contracts/BalanceChecker.sol\":804:827  IERC20(token).balanceOf */\n      0xffffffffffffffffffffffffffffffffffffffff\n      and\n      0x70a08231\n        /* \"contracts/BalanceChecker.sol\":828:832  user */\n      dup6\n        /* \"contracts/BalanceChecker.sol\":804:833  IERC20(token).balanceOf(user) */\n      mload(0x40)\n      dup3\n      0xffffffff\n      and\n      0xe0\n      shl\n      dup2\n      mstore\n      0x04\n      add\n      tag_28\n      swap2\n      swap1\n      tag_29\n      jump\t// in\n    tag_28:\n      0x20\n      mload(0x40)\n      dup1\n      dup4\n      sub\n      dup2\n      dup7\n      gas\n      staticcall\n      swap3\n      pop\n      pop\n      pop\n      dup1\n      iszero\n      tag_30\n      jumpi\n      pop\n      mload(0x40)\n      returndatasize\n      not(0x1f)\n      0x1f\n      dup3\n      add\n      and\n      dup3\n      add\n      dup1\n      0x40\n      mstore\n      pop\n      dup2\n      add\n      swap1\n      tag_31\n      swap2\n      swap1\n      tag_32\n      jump\t// in\n    tag_31:\n      0x01\n    tag_30:\n        /* \"contracts/BalanceChecker.sol\":800:955  try IERC20(token).balanceOf(user) returns (uint256 balance) {... */\n      tag_33\n      jumpi\n        /* \"contracts/BalanceChecker.sol\":939:940  0 */\n      0x00\n        /* \"contracts/BalanceChecker.sol\":932:940  return 0 */\n      swap2\n      pop\n      pop\n      jump(tag_26)\n        /* \"contracts/BalanceChecker.sol\":800:955  try IERC20(token).balanceOf(user) returns (uint256 balance) {... */\n    tag_33:\n        /* \"contracts/BalanceChecker.sol\":885:892  balance */\n      dup1\n        /* \"contracts/BalanceChecker.sol\":878:892  return balance */\n      swap3\n      pop\n      pop\n      pop\n      jump(tag_26)\n        /* \"contracts/BalanceChecker.sol\":767:1004  if (tokenCode > 0) {... */\n    tag_27:\n        /* \"contracts/BalanceChecker.sol\":992:993  0 */\n      0x00\n        /* \"contracts/BalanceChecker.sol\":985:993  return 0 */\n      swap2\n      pop\n      pop\n        /* \"contracts/BalanceChecker.sol\":589:1010  function tokenBalance(address user, address token) public view returns (uint256) {... */\n    tag_26:\n      swap3\n      swap2\n      pop\n      pop\n      jump\t// out\n        /* \"contracts/BalanceChecker.sol\":1150:1827  function balances(address[] calldata users, address[] calldata tokens) external view returns (uint256[] memory) {... */\n    tag_23:\n        /* \"contracts/BalanceChecker.sol\":1244:1260  uint256[] memory */\n      0x60\n        /* \"contracts/BalanceChecker.sol\":1272:1301  uint256[] memory addrBalances */\n      0x00\n        /* \"contracts/BalanceChecker.sol\":1334:1339  users */\n      dup6\n      dup6\n        /* \"contracts/BalanceChecker.sol\":1334:1346  users.length */\n      swap1\n      pop\n        /* \"contracts/BalanceChecker.sol\":1318:1324  tokens */\n      dup5\n      dup5\n        /* \"contracts/BalanceChecker.sol\":1318:1331  tokens.length */\n      swap1\n      pop\n        /* \"contracts/BalanceChecker.sol\":1318:1346  tokens.length * users.length */\n      tag_40\n      swap2\n      swap1\n      tag_41\n      jump\t// in\n    tag_40:\n        /* \"contracts/BalanceChecker.sol\":1304:1347  new uint256[](tokens.length * users.length) */\n      0xffffffffffffffff\n      dup2\n      gt\n      iszero\n      tag_42\n      jumpi\n      tag_43\n      tag_44\n      jump\t// in\n    tag_43:\n    tag_42:\n      mload(0x40)\n      swap1\n      dup1\n      dup3\n      mstore\n      dup1\n      0x20\n      mul\n      0x20\n      add\n      dup3\n      add\n      0x40\n      mstore\n      dup1\n      iszero\n      tag_45\n      jumpi\n      dup2\n      0x20\n      add\n      0x20\n      dup3\n      mul\n      dup1\n      calldatasize\n      dup4\n      calldatacopy\n      dup1\n      dup3\n      add\n      swap2\n      pop\n      pop\n      swap1\n      pop\n    tag_45:\n      pop\n        /* \"contracts/BalanceChecker.sol\":1272:1347  uint256[] memory addrBalances = new uint256[](tokens.length * users.length) */\n      swap1\n      pop\n        /* \"contracts/BalanceChecker.sol\":1371:1380  uint256 i */\n      0x00\n        /* \"contracts/BalanceChecker.sol\":1383:1384  0 */\n      0x00\n        /* \"contracts/BalanceChecker.sol\":1371:1384  uint256 i = 0 */\n      swap1\n      pop\n        /* \"contracts/BalanceChecker.sol\":1366:1785  for (uint256 i = 0; i < users.length; i++) {... */\n    tag_46:\n        /* \"contracts/BalanceChecker.sol\":1390:1395  users */\n      dup7\n      dup7\n        /* \"contracts/BalanceChecker.sol\":1390:1402  users.length */\n      swap1\n      pop\n        /* \"contracts/BalanceChecker.sol\":1386:1387  i */\n      dup2\n        /* \"contracts/BalanceChecker.sol\":1386:1402  i < users.length */\n      lt\n        /* \"contracts/BalanceChecker.sol\":1366:1785  for (uint256 i = 0; i < users.length; i++) {... */\n      iszero\n      tag_47\n      jumpi\n        /* \"contracts/BalanceChecker.sol\":1428:1437  uint256 j */\n      0x00\n        /* \"contracts/BalanceChecker.sol\":1440:1441  0 */\n      0x00\n        /* \"contracts/BalanceChecker.sol\":1428:1441  uint256 j = 0 */\n      swap1\n      pop\n        /* \"contracts/BalanceChecker.sol\":1423:1773  for (uint256 j = 0; j < tokens.length; j++) {... */\n    tag_49:\n        /* \"contracts/BalanceChecker.sol\":1447:1453  tokens */\n      dup6\n      dup6\n        /* \"contracts/BalanceChecker.sol\":1447:1460  tokens.length */\n      swap1\n      pop\n        /* \"contracts/BalanceChecker.sol\":1443:1444  j */\n      dup2\n        /* \"contracts/BalanceChecker.sol\":1443:1460  j < tokens.length */\n      lt\n        /* \"contracts/BalanceChecker.sol\":1423:1773  for (uint256 j = 0; j < tokens.length; j++) {... */\n      iszero\n      tag_50\n      jumpi\n        /* \"contracts/BalanceChecker.sol\":1485:1500  uint256 addrIdx */\n      0x00\n        /* \"contracts/BalanceChecker.sol\":1523:1524  i */\n      dup3\n        /* \"contracts/BalanceChecker.sol\":1507:1513  tokens */\n      dup8\n      dup8\n        /* \"contracts/BalanceChecker.sol\":1507:1520  tokens.length */\n      swap1\n      pop\n        /* \"contracts/BalanceChecker.sol\":1507:1524  tokens.length * i */\n      tag_52\n      swap2\n      swap1\n      tag_41\n      jump\t// in\n    tag_52:\n        /* \"contracts/BalanceChecker.sol\":1503:1504  j */\n      dup3\n        /* \"contracts/BalanceChecker.sol\":1503:1524  j + tokens.length * i */\n      tag_53\n      swap2\n      swap1\n      tag_54\n      jump\t// in\n    tag_53:\n        /* \"contracts/BalanceChecker.sol\":1485:1524  uint256 addrIdx = j + tokens.length * i */\n      swap1\n      pop\n        /* \"contracts/BalanceChecker.sol\":1567:1570  0x0 */\n      0x00\n        /* \"contracts/BalanceChecker.sol\":1546:1571  tokens[j] != address(0x0) */\n      0xffffffffffffffffffffffffffffffffffffffff\n      and\n        /* \"contracts/BalanceChecker.sol\":1546:1552  tokens */\n      dup8\n      dup8\n        /* \"contracts/BalanceChecker.sol\":1553:1554  j */\n      dup5\n        /* \"contracts/BalanceChecker.sol\":1546:1555  tokens[j] */\n      dup2\n      dup2\n      lt\n      tag_55\n      jumpi\n      tag_56\n      tag_57\n      jump\t// in\n    tag_56:\n    tag_55:\n      swap1\n      pop\n      0x20\n      mul\n      add\n      0x20\n      dup2\n      add\n      swap1\n      tag_58\n      swap2\n      swap1\n      tag_59\n      jump\t// in\n    tag_58:\n        /* \"contracts/BalanceChecker.sol\":1546:1571  tokens[j] != address(0x0) */\n      0xffffffffffffffffffffffffffffffffffffffff\n      and\n      eq\n        /* \"contracts/BalanceChecker.sol\":1542:1759  if (tokens[j] != address(0x0)) { ... */\n      tag_60\n      jumpi\n        /* \"contracts/BalanceChecker.sol\":1620:1653  tokenBalance(users[i], tokens[j]) */\n      tag_61\n        /* \"contracts/BalanceChecker.sol\":1633:1638  users */\n      dup10\n      dup10\n        /* \"contracts/BalanceChecker.sol\":1639:1640  i */\n      dup6\n        /* \"contracts/BalanceChecker.sol\":1633:1641  users[i] */\n      dup2\n      dup2\n      lt\n      tag_62\n      jumpi\n      tag_63\n      tag_57\n      jump\t// in\n    tag_63:\n    tag_62:\n      swap1\n      pop\n      0x20\n      mul\n      add\n      0x20\n      dup2\n      add\n      swap1\n      tag_64\n      swap2\n      swap1\n      tag_59\n      jump\t// in\n    tag_64:\n        /* \"contracts/BalanceChecker.sol\":1643:1649  tokens */\n      dup9\n      dup9\n        /* \"contracts/BalanceChecker.sol\":1650:1651  j */\n      dup6\n        /* \"contracts/BalanceChecker.sol\":1643:1652  tokens[j] */\n      dup2\n      dup2\n      lt\n      tag_65\n      jumpi\n      tag_66\n      tag_57\n      jump\t// in\n    tag_66:\n    tag_65:\n      swap1\n      pop\n      0x20\n      mul\n      add\n      0x20\n      dup2\n      add\n      swap1\n      tag_67\n      swap2\n      swap1\n      tag_59\n      jump\t// in\n    tag_67:\n        /* \"contracts/BalanceChecker.sol\":1620:1632  tokenBalance */\n      tag_16\n        /* \"contracts/BalanceChecker.sol\":1620:1653  tokenBalance(users[i], tokens[j]) */\n      jump\t// in\n    tag_61:\n        /* \"contracts/BalanceChecker.sol\":1596:1608  addrBalances */\n      dup5\n        /* \"contracts/BalanceChecker.sol\":1609:1616  addrIdx */\n      dup3\n        /* \"contracts/BalanceChecker.sol\":1596:1617  addrBalances[addrIdx] */\n      dup2\n      mload\n      dup2\n      lt\n      tag_68\n      jumpi\n      tag_69\n      tag_57\n      jump\t// in\n    tag_69:\n    tag_68:\n      0x20\n      mul\n      0x20\n      add\n      add\n        /* \"contracts/BalanceChecker.sol\":1596:1653  addrBalances[addrIdx] = tokenBalance(users[i], tokens[j]) */\n      dup2\n      dup2\n      mstore\n      pop\n      pop\n        /* \"contracts/BalanceChecker.sol\":1542:1759  if (tokens[j] != address(0x0)) { ... */\n      jump(tag_70)\n    tag_60:\n        /* \"contracts/BalanceChecker.sol\":1724:1729  users */\n      dup9\n      dup9\n        /* \"contracts/BalanceChecker.sol\":1730:1731  i */\n      dup5\n        /* \"contracts/BalanceChecker.sol\":1724:1732  users[i] */\n      dup2\n      dup2\n      lt\n      tag_71\n      jumpi\n      tag_72\n      tag_57\n      jump\t// in\n    tag_72:\n    tag_71:\n      swap1\n      pop\n      0x20\n      mul\n      add\n      0x20\n      dup2\n      add\n      swap1\n      tag_73\n      swap2\n      swap1\n      tag_59\n      jump\t// in\n    tag_73:\n        /* \"contracts/BalanceChecker.sol\":1724:1740  users[i].balance */\n      0xffffffffffffffffffffffffffffffffffffffff\n      and\n      balance\n        /* \"contracts/BalanceChecker.sol\":1700:1712  addrBalances */\n      dup5\n        /* \"contracts/BalanceChecker.sol\":1713:1720  addrIdx */\n      dup3\n        /* \"contracts/BalanceChecker.sol\":1700:1721  addrBalances[addrIdx] */\n      dup2\n      mload\n      dup2\n      lt\n      tag_74\n      jumpi\n      tag_75\n      tag_57\n      jump\t// in\n    tag_75:\n    tag_74:\n      0x20\n      mul\n      0x20\n      add\n      add\n        /* \"contracts/BalanceChecker.sol\":1700:1740  addrBalances[addrIdx] = users[i].balance */\n      dup2\n      dup2\n      mstore\n      pop\n      pop\n        /* \"contracts/BalanceChecker.sol\":1542:1759  if (tokens[j] != address(0x0)) { ... */\n    tag_70:\n        /* \"contracts/BalanceChecker.sol\":1467:1773  {... */\n      pop\n        /* \"contracts/BalanceChecker.sol\":1462:1465  j++ */\n      dup1\n      dup1\n      0x01\n      add\n      swap2\n      pop\n      pop\n        /* \"contracts/BalanceChecker.sol\":1423:1773  for (uint256 j = 0; j < tokens.length; j++) {... */\n      jump(tag_49)\n    tag_50:\n      pop\n        /* \"contracts/BalanceChecker.sol\":1404:1407  i++ */\n      dup1\n      dup1\n      0x01\n      add\n      swap2\n      pop\n      pop\n        /* \"contracts/BalanceChecker.sol\":1366:1785  for (uint256 i = 0; i < users.length; i++) {... */\n      jump(tag_46)\n    tag_47:\n      pop\n        /* \"contracts/BalanceChecker.sol\":1808:1820  addrBalances */\n      dup1\n        /* \"contracts/BalanceChecker.sol\":1801:1820  return addrBalances */\n      swap2\n      pop\n      pop\n        /* \"contracts/BalanceChecker.sol\":1150:1827  function balances(address[] calldata users, address[] calldata tokens) external view returns (uint256[] memory) {... */\n      swap5\n      swap4\n      pop\n      pop\n      pop\n      pop\n      jump\t// out\n        /* \"#utility.yul\":7:176   */\n    tag_76:\n        /* \"#utility.yul\":91:102   */\n      0x00\n        /* \"#utility.yul\":125:131   */\n      dup3\n        /* \"#utility.yul\":120:123   */\n      dup3\n        /* \"#utility.yul\":113:132   */\n      mstore\n        /* \"#utility.yul\":165:169   */\n      0x20\n        /* \"#utility.yul\":160:163   */\n      dup3\n        /* \"#utility.yul\":156:170   */\n      add\n        /* \"#utility.yul\":141:170   */\n      swap1\n      pop\n        /* \"#utility.yul\":7:176   */\n      swap3\n      swap2\n      pop\n      pop\n      jump\t// out\n        /* \"#utility.yul\":182:408   */\n    tag_77:\n        /* \"#utility.yul\":322:356   */\n      0x42616c616e6365436865636b657220646f6573206e6f74206163636570742070\n        /* \"#utility.yul\":318:319   */\n      0x00\n        /* \"#utility.yul\":310:316   */\n      dup3\n        /* \"#utility.yul\":306:320   */\n      add\n        /* \"#utility.yul\":299:357   */\n      mstore\n        /* \"#utility.yul\":391:400   */\n      0x61796d656e747300000000000000000000000000000000000000000000000000\n        /* \"#utility.yul\":386:388   */\n      0x20\n        /* \"#utility.yul\":378:384   */\n      dup3\n        /* \"#utility.yul\":374:389   */\n      add\n        /* \"#utility.yul\":367:401   */\n      mstore\n        /* \"#utility.yul\":182:408   */\n      pop\n      jump\t// out\n        /* \"#utility.yul\":414:780   */\n    tag_78:\n        /* \"#utility.yul\":556:559   */\n      0x00\n        /* \"#utility.yul\":577:644   */\n      tag_107\n        /* \"#utility.yul\":641:643   */\n      0x27\n        /* \"#utility.yul\":636:639   */\n      dup4\n        /* \"#utility.yul\":577:644   */\n      tag_76\n      jump\t// in\n    tag_107:\n        /* \"#utility.yul\":570:644   */\n      swap2\n      pop\n        /* \"#utility.yul\":653:746   */\n      tag_108\n        /* \"#utility.yul\":742:745   */\n      dup3\n        /* \"#utility.yul\":653:746   */\n      tag_77\n      jump\t// in\n    tag_108:\n        /* \"#utility.yul\":771:773   */\n      0x40\n        /* \"#utility.yul\":766:769   */\n      dup3\n        /* \"#utility.yul\":762:774   */\n      add\n        /* \"#utility.yul\":755:774   */\n      swap1\n      pop\n        /* \"#utility.yul\":414:780   */\n      swap2\n      swap1\n      pop\n      jump\t// out\n        /* \"#utility.yul\":786:1205   */\n    tag_8:\n        /* \"#utility.yul\":952:956   */\n      0x00\n        /* \"#utility.yul\":990:992   */\n      0x20\n        /* \"#utility.yul\":979:988   */\n      dup3\n        /* \"#utility.yul\":975:993   */\n      add\n        /* \"#utility.yul\":967:993   */\n      swap1\n      pop\n        /* \"#utility.yul\":1039:1048   */\n      dup2\n        /* \"#utility.yul\":1033:1037   */\n      dup2\n        /* \"#utility.yul\":1029:1049   */\n      sub\n        /* \"#utility.yul\":1025:1026   */\n      0x00\n        /* \"#utility.yul\":1014:1023   */\n      dup4\n        /* \"#utility.yul\":1010:1027   */\n      add\n        /* \"#utility.yul\":1003:1050   */\n      mstore\n        /* \"#utility.yul\":1067:1198   */\n      tag_110\n        /* \"#utility.yul\":1193:1197   */\n      dup2\n        /* \"#utility.yul\":1067:1198   */\n      tag_78\n      jump\t// in\n    tag_110:\n        /* \"#utility.yul\":1059:1198   */\n      swap1\n      pop\n        /* \"#utility.yul\":786:1205   */\n      swap2\n      swap1\n      pop\n      jump\t// out\n        /* \"#utility.yul\":1292:1409   */\n    tag_80:\n        /* \"#utility.yul\":1401:1402   */\n      0x00\n        /* \"#utility.yul\":1398:1399   */\n      0x00\n        /* \"#utility.yul\":1391:1403   */\n      revert\n        /* \"#utility.yul\":1415:1532   */\n    tag_81:\n        /* \"#utility.yul\":1524:1525   */\n      0x00\n        /* \"#utility.yul\":1521:1522   */\n      0x00\n        /* \"#utility.yul\":1514:1526   */\n      revert\n        /* \"#utility.yul\":1538:1664   */\n    tag_82:\n        /* \"#utility.yul\":1575:1582   */\n      0x00\n        /* \"#utility.yul\":1615:1657   */\n      0xffffffffffffffffffffffffffffffffffffffff\n        /* \"#utility.yul\":1608:1613   */\n      dup3\n        /* \"#utility.yul\":1604:1658   */\n      and\n        /* \"#utility.yul\":1593:1658   */\n      swap1\n      pop\n        /* \"#utility.yul\":1538:1664   */\n      swap2\n      swap1\n      pop\n      jump\t// out\n        /* \"#utility.yul\":1670:1766   */\n    tag_83:\n        /* \"#utility.yul\":1707:1714   */\n      0x00\n        /* \"#utility.yul\":1736:1760   */\n      tag_116\n        /* \"#utility.yul\":1754:1759   */\n      dup3\n        /* \"#utility.yul\":1736:1760   */\n      tag_82\n      jump\t// in\n    tag_116:\n        /* \"#utility.yul\":1725:1760   */\n      swap1\n      pop\n        /* \"#utility.yul\":1670:1766   */\n      swap2\n      swap1\n      pop\n      jump\t// out\n        /* \"#utility.yul\":1772:1894   */\n    tag_84:\n        /* \"#utility.yul\":1845:1869   */\n      tag_118\n        /* \"#utility.yul\":1863:1868   */\n      dup2\n        /* \"#utility.yul\":1845:1869   */\n      tag_83\n      jump\t// in\n    tag_118:\n        /* \"#utility.yul\":1838:1843   */\n      dup2\n        /* \"#utility.yul\":1835:1870   */\n      eq\n        /* \"#utility.yul\":1825:1888   */\n      tag_119\n      jumpi\n        /* \"#utility.yul\":1884:1885   */\n      0x00\n        /* \"#utility.yul\":1881:1882   */\n      0x00\n        /* \"#utility.yul\":1874:1886   */\n      revert\n        /* \"#utility.yul\":1825:1888   */\n    tag_119:\n        /* \"#utility.yul\":1772:1894   */\n      pop\n      jump\t// out\n        /* \"#utility.yul\":1900:2039   */\n    tag_85:\n        /* \"#utility.yul\":1946:1951   */\n      0x00\n        /* \"#utility.yul\":1984:1990   */\n      dup2\n        /* \"#utility.yul\":1971:1991   */\n      calldataload\n        /* \"#utility.yul\":1962:1991   */\n      swap1\n      pop\n        /* \"#utility.yul\":2000:2033   */\n      tag_121\n        /* \"#utility.yul\":2027:2032   */\n      dup2\n        /* \"#utility.yul\":2000:2033   */\n      tag_84\n      jump\t// in\n    tag_121:\n        /* \"#utility.yul\":1900:2039   */\n      swap3\n      swap2\n      pop\n      pop\n      jump\t// out\n        /* \"#utility.yul\":2045:2519   */\n    tag_15:\n        /* \"#utility.yul\":2113:2119   */\n      0x00\n        /* \"#utility.yul\":2121:2127   */\n      0x00\n        /* \"#utility.yul\":2170:2172   */\n      0x40\n        /* \"#utility.yul\":2158:2167   */\n      dup4\n        /* \"#utility.yul\":2149:2156   */\n      dup6\n        /* \"#utility.yul\":2145:2168   */\n      sub\n        /* \"#utility.yul\":2141:2173   */\n      slt\n        /* \"#utility.yul\":2138:2257   */\n      iszero\n      tag_123\n      jumpi\n        /* \"#utility.yul\":2176:2255   */\n      tag_124\n      tag_80\n      jump\t// in\n    tag_124:\n        /* \"#utility.yul\":2138:2257   */\n    tag_123:\n        /* \"#utility.yul\":2296:2297   */\n      0x00\n        /* \"#utility.yul\":2321:2374   */\n      tag_125\n        /* \"#utility.yul\":2366:2373   */\n      dup6\n        /* \"#utility.yul\":2357:2363   */\n      dup3\n        /* \"#utility.yul\":2346:2355   */\n      dup7\n        /* \"#utility.yul\":2342:2364   */\n      add\n        /* \"#utility.yul\":2321:2374   */\n      tag_85\n      jump\t// in\n    tag_125:\n        /* \"#utility.yul\":2311:2374   */\n      swap3\n      pop\n        /* \"#utility.yul\":2267:2384   */\n      pop\n        /* \"#utility.yul\":2423:2425   */\n      0x20\n        /* \"#utility.yul\":2449:2502   */\n      tag_126\n        /* \"#utility.yul\":2494:2501   */\n      dup6\n        /* \"#utility.yul\":2485:2491   */\n      dup3\n        /* \"#utility.yul\":2474:2483   */\n      dup7\n        /* \"#utility.yul\":2470:2492   */\n      add\n        /* \"#utility.yul\":2449:2502   */\n      tag_85\n      jump\t// in\n    tag_126:\n        /* \"#utility.yul\":2439:2502   */\n      swap2\n      pop\n        /* \"#utility.yul\":2394:2512   */\n      pop\n        /* \"#utility.yul\":2045:2519   */\n      swap3\n      pop\n      swap3\n      swap1\n      pop\n      jump\t// out\n        /* \"#utility.yul\":2525:2602   */\n    tag_86:\n        /* \"#utility.yul\":2562:2569   */\n      0x00\n        /* \"#utility.yul\":2591:2596   */\n      dup2\n        /* \"#utility.yul\":2580:2596   */\n      swap1\n      pop\n        /* \"#utility.yul\":2525:2602   */\n      swap2\n      swap1\n      pop\n      jump\t// out\n        /* \"#utility.yul\":2608:2726   */\n    tag_87:\n        /* \"#utility.yul\":2695:2719   */\n      tag_129\n        /* \"#utility.yul\":2713:2718   */\n      dup2\n        /* \"#utility.yul\":2695:2719   */\n      tag_86\n      jump\t// in\n    tag_129:\n        /* \"#utility.yul\":2690:2693   */\n      dup3\n        /* \"#utility.yul\":2683:2720   */\n      mstore\n        /* \"#utility.yul\":2608:2726   */\n      pop\n      pop\n      jump\t// out\n        /* \"#utility.yul\":2732:2954   */\n    tag_18:\n        /* \"#utility.yul\":2825:2829   */\n      0x00\n        /* \"#utility.yul\":2863:2865   */\n      0x20\n        /* \"#utility.yul\":2852:2861   */\n      dup3\n        /* \"#utility.yul\":2848:2866   */\n      add\n        /* \"#utility.yul\":2840:2866   */\n      swap1\n      pop\n        /* \"#utility.yul\":2876:2947   */\n      tag_131\n        /* \"#utility.yul\":2944:2945   */\n      0x00\n        /* \"#utility.yul\":2933:2942   */\n      dup4\n        /* \"#utility.yul\":2929:2946   */\n      add\n        /* \"#utility.yul\":2920:2926   */\n      dup5\n        /* \"#utility.yul\":2876:2947   */\n      tag_87\n      jump\t// in\n    tag_131:\n        /* \"#utility.yul\":2732:2954   */\n      swap3\n      swap2\n      pop\n      pop\n      jump\t// out\n        /* \"#utility.yul\":2960:3077   */\n    tag_88:\n        /* \"#utility.yul\":3069:3070   */\n      0x00\n        /* \"#utility.yul\":3066:3067   */\n      0x00\n        /* \"#utility.yul\":3059:3071   */\n      revert\n        /* \"#utility.yul\":3083:3200   */\n    tag_89:\n        /* \"#utility.yul\":3192:3193   */\n      0x00\n        /* \"#utility.yul\":3189:3190   */\n      0x00\n        /* \"#utility.yul\":3182:3194   */\n      revert\n        /* \"#utility.yul\":3206:3323   */\n    tag_90:\n        /* \"#utility.yul\":3315:3316   */\n      0x00\n        /* \"#utility.yul\":3312:3313   */\n      0x00\n        /* \"#utility.yul\":3305:3317   */\n      revert\n        /* \"#utility.yul\":3346:3914   */\n    tag_91:\n        /* \"#utility.yul\":3419:3427   */\n      0x00\n        /* \"#utility.yul\":3429:3435   */\n      0x00\n        /* \"#utility.yul\":3479:3482   */\n      dup4\n        /* \"#utility.yul\":3472:3476   */\n      0x1f\n        /* \"#utility.yul\":3464:3470   */\n      dup5\n        /* \"#utility.yul\":3460:3477   */\n      add\n        /* \"#utility.yul\":3456:3483   */\n      slt\n        /* \"#utility.yul\":3446:3568   */\n      tag_136\n      jumpi\n        /* \"#utility.yul\":3487:3566   */\n      tag_137\n      tag_88\n      jump\t// in\n    tag_137:\n        /* \"#utility.yul\":3446:3568   */\n    tag_136:\n        /* \"#utility.yul\":3600:3606   */\n      dup3\n        /* \"#utility.yul\":3587:3607   */\n      calldataload\n        /* \"#utility.yul\":3577:3607   */\n      swap1\n      pop\n        /* \"#utility.yul\":3630:3648   */\n      0xffffffffffffffff\n        /* \"#utility.yul\":3622:3628   */\n      dup2\n        /* \"#utility.yul\":3619:3649   */\n      gt\n        /* \"#utility.yul\":3616:3733   */\n      iszero\n      tag_138\n      jumpi\n        /* \"#utility.yul\":3652:3731   */\n      tag_139\n      tag_89\n      jump\t// in\n    tag_139:\n        /* \"#utility.yul\":3616:3733   */\n    tag_138:\n        /* \"#utility.yul\":3766:3770   */\n      0x20\n        /* \"#utility.yul\":3758:3764   */\n      dup4\n        /* \"#utility.yul\":3754:3771   */\n      add\n        /* \"#utility.yul\":3742:3771   */\n      swap2\n      pop\n        /* \"#utility.yul\":3820:3823   */\n      dup4\n        /* \"#utility.yul\":3812:3816   */\n      0x20\n        /* \"#utility.yul\":3804:3810   */\n      dup3\n        /* \"#utility.yul\":3800:3817   */\n      mul\n        /* \"#utility.yul\":3790:3798   */\n      dup4\n        /* \"#utility.yul\":3786:3818   */\n      add\n        /* \"#utility.yul\":3783:3824   */\n      gt\n        /* \"#utility.yul\":3780:3908   */\n      iszero\n      tag_140\n      jumpi\n        /* \"#utility.yul\":3827:3906   */\n      tag_141\n      tag_90\n      jump\t// in\n    tag_141:\n        /* \"#utility.yul\":3780:3908   */\n    tag_140:\n        /* \"#utility.yul\":3346:3914   */\n      swap3\n      pop\n      swap3\n      swap1\n      pop\n      jump\t// out\n        /* \"#utility.yul\":3920:4854   */\n    tag_22:\n        /* \"#utility.yul\":4042:4048   */\n      0x00\n        /* \"#utility.yul\":4050:4056   */\n      0x00\n        /* \"#utility.yul\":4058:4064   */\n      0x00\n        /* \"#utility.yul\":4066:4072   */\n      0x00\n        /* \"#utility.yul\":4115:4117   */\n      0x40\n        /* \"#utility.yul\":4103:4112   */\n      dup6\n        /* \"#utility.yul\":4094:4101   */\n      dup8\n        /* \"#utility.yul\":4090:4113   */\n      sub\n        /* \"#utility.yul\":4086:4118   */\n      slt\n        /* \"#utility.yul\":4083:4202   */\n      iszero\n      tag_143\n      jumpi\n        /* \"#utility.yul\":4121:4200   */\n      tag_144\n      tag_80\n      jump\t// in\n    tag_144:\n        /* \"#utility.yul\":4083:4202   */\n    tag_143:\n        /* \"#utility.yul\":4269:4270   */\n      0x00\n        /* \"#utility.yul\":4258:4267   */\n      dup6\n        /* \"#utility.yul\":4254:4271   */\n      add\n        /* \"#utility.yul\":4241:4272   */\n      calldataload\n        /* \"#utility.yul\":4299:4317   */\n      0xffffffffffffffff\n        /* \"#utility.yul\":4291:4297   */\n      dup2\n        /* \"#utility.yul\":4288:4318   */\n      gt\n        /* \"#utility.yul\":4285:4402   */\n      iszero\n      tag_145\n      jumpi\n        /* \"#utility.yul\":4321:4400   */\n      tag_146\n      tag_81\n      jump\t// in\n    tag_146:\n        /* \"#utility.yul\":4285:4402   */\n    tag_145:\n        /* \"#utility.yul\":4434:4514   */\n      tag_147\n        /* \"#utility.yul\":4506:4513   */\n      dup8\n        /* \"#utility.yul\":4497:4503   */\n      dup3\n        /* \"#utility.yul\":4486:4495   */\n      dup9\n        /* \"#utility.yul\":4482:4504   */\n      add\n        /* \"#utility.yul\":4434:4514   */\n      tag_91\n      jump\t// in\n    tag_147:\n        /* \"#utility.yul\":4416:4514   */\n      swap5\n      pop\n      swap5\n      pop\n        /* \"#utility.yul\":4212:4524   */\n      pop\n        /* \"#utility.yul\":4591:4593   */\n      0x20\n        /* \"#utility.yul\":4580:4589   */\n      dup6\n        /* \"#utility.yul\":4576:4594   */\n      add\n        /* \"#utility.yul\":4563:4595   */\n      calldataload\n        /* \"#utility.yul\":4622:4640   */\n      0xffffffffffffffff\n        /* \"#utility.yul\":4614:4620   */\n      dup2\n        /* \"#utility.yul\":4611:4641   */\n      gt\n        /* \"#utility.yul\":4608:4725   */\n      iszero\n      tag_148\n      jumpi\n        /* \"#utility.yul\":4644:4723   */\n      tag_149\n      tag_81\n      jump\t// in\n    tag_149:\n        /* \"#utility.yul\":4608:4725   */\n    tag_148:\n        /* \"#utility.yul\":4757:4837   */\n      tag_150\n        /* \"#utility.yul\":4829:4836   */\n      dup8\n        /* \"#utility.yul\":4820:4826   */\n      dup3\n        /* \"#utility.yul\":4809:4818   */\n      dup9\n        /* \"#utility.yul\":4805:4827   */\n      add\n        /* \"#utility.yul\":4757:4837   */\n      tag_91\n      jump\t// in\n    tag_150:\n        /* \"#utility.yul\":4739:4837   */\n      swap3\n      pop\n      swap3\n      pop\n        /* \"#utility.yul\":4534:4847   */\n      pop\n        /* \"#utility.yul\":3920:4854   */\n      swap3\n      swap6\n      swap2\n      swap5\n      pop\n      swap3\n      pop\n      jump\t// out\n        /* \"#utility.yul\":4860:4974   */\n    tag_92:\n        /* \"#utility.yul\":4927:4933   */\n      0x00\n        /* \"#utility.yul\":4961:4966   */\n      dup2\n        /* \"#utility.yul\":4955:4967   */\n      mload\n        /* \"#utility.yul\":4945:4967   */\n      swap1\n      pop\n        /* \"#utility.yul\":4860:4974   */\n      swap2\n      swap1\n      pop\n      jump\t// out\n        /* \"#utility.yul\":4980:5164   */\n    tag_93:\n        /* \"#utility.yul\":5079:5090   */\n      0x00\n        /* \"#utility.yul\":5113:5119   */\n      dup3\n        /* \"#utility.yul\":5108:5111   */\n      dup3\n        /* \"#utility.yul\":5101:5120   */\n      mstore\n        /* \"#utility.yul\":5153:5157   */\n      0x20\n        /* \"#utility.yul\":5148:5151   */\n      dup3\n        /* \"#utility.yul\":5144:5158   */\n      add\n        /* \"#utility.yul\":5129:5158   */\n      swap1\n      pop\n        /* \"#utility.yul\":4980:5164   */\n      swap3\n      swap2\n      pop\n      pop\n      jump\t// out\n        /* \"#utility.yul\":5170:5302   */\n    tag_94:\n        /* \"#utility.yul\":5237:5241   */\n      0x00\n        /* \"#utility.yul\":5260:5263   */\n      dup2\n        /* \"#utility.yul\":5252:5263   */\n      swap1\n      pop\n        /* \"#utility.yul\":5290:5294   */\n      0x20\n        /* \"#utility.yul\":5285:5288   */\n      dup3\n        /* \"#utility.yul\":5281:5295   */\n      add\n        /* \"#utility.yul\":5273:5295   */\n      swap1\n      pop\n        /* \"#utility.yul\":5170:5302   */\n      swap2\n      swap1\n      pop\n      jump\t// out\n        /* \"#utility.yul\":5308:5416   */\n    tag_95:\n        /* \"#utility.yul\":5385:5409   */\n      tag_155\n        /* \"#utility.yul\":5403:5408   */\n      dup2\n        /* \"#utility.yul\":5385:5409   */\n      tag_86\n      jump\t// in\n    tag_155:\n        /* \"#utility.yul\":5380:5383   */\n      dup3\n        /* \"#utility.yul\":5373:5410   */\n      mstore\n        /* \"#utility.yul\":5308:5416   */\n      pop\n      pop\n      jump\t// out\n        /* \"#utility.yul\":5422:5601   */\n    tag_96:\n        /* \"#utility.yul\":5491:5501   */\n      0x00\n        /* \"#utility.yul\":5512:5558   */\n      tag_157\n        /* \"#utility.yul\":5554:5557   */\n      dup4\n        /* \"#utility.yul\":5546:5552   */\n      dup4\n        /* \"#utility.yul\":5512:5558   */\n      tag_95\n      jump\t// in\n    tag_157:\n        /* \"#utility.yul\":5590:5594   */\n      0x20\n        /* \"#utility.yul\":5585:5588   */\n      dup4\n        /* \"#utility.yul\":5581:5595   */\n      add\n        /* \"#utility.yul\":5567:5595   */\n      swap1\n      pop\n        /* \"#utility.yul\":5422:5601   */\n      swap3\n      swap2\n      pop\n      pop\n      jump\t// out\n        /* \"#utility.yul\":5607:5720   */\n    tag_97:\n        /* \"#utility.yul\":5677:5681   */\n      0x00\n        /* \"#utility.yul\":5709:5713   */\n      0x20\n        /* \"#utility.yul\":5704:5707   */\n      dup3\n        /* \"#utility.yul\":5700:5714   */\n      add\n        /* \"#utility.yul\":5692:5714   */\n      swap1\n      pop\n        /* \"#utility.yul\":5607:5720   */\n      swap2\n      swap1\n      pop\n      jump\t// out\n        /* \"#utility.yul\":5756:6488   */\n    tag_98:\n        /* \"#utility.yul\":5875:5878   */\n      0x00\n        /* \"#utility.yul\":5904:5958   */\n      tag_160\n        /* \"#utility.yul\":5952:5957   */\n      dup3\n        /* \"#utility.yul\":5904:5958   */\n      tag_92\n      jump\t// in\n    tag_160:\n        /* \"#utility.yul\":5974:6060   */\n      tag_161\n        /* \"#utility.yul\":6053:6059   */\n      dup2\n        /* \"#utility.yul\":6048:6051   */\n      dup6\n        /* \"#utility.yul\":5974:6060   */\n      tag_93\n      jump\t// in\n    tag_161:\n        /* \"#utility.yul\":5967:6060   */\n      swap4\n      pop\n        /* \"#utility.yul\":6084:6140   */\n      tag_162\n        /* \"#utility.yul\":6134:6139   */\n      dup4\n        /* \"#utility.yul\":6084:6140   */\n      tag_94\n      jump\t// in\n    tag_162:\n        /* \"#utility.yul\":6163:6170   */\n      dup1\n        /* \"#utility.yul\":6194:6195   */\n      0x00\n        /* \"#utility.yul\":6179:6463   */\n    tag_163:\n        /* \"#utility.yul\":6204:6210   */\n      dup4\n        /* \"#utility.yul\":6201:6202   */\n      dup2\n        /* \"#utility.yul\":6198:6211   */\n      lt\n        /* \"#utility.yul\":6179:6463   */\n      iszero\n      tag_165\n      jumpi\n        /* \"#utility.yul\":6280:6286   */\n      dup2\n        /* \"#utility.yul\":6274:6287   */\n      mload\n        /* \"#utility.yul\":6307:6370   */\n      tag_166\n        /* \"#utility.yul\":6366:6369   */\n      dup9\n        /* \"#utility.yul\":6351:6364   */\n      dup3\n        /* \"#utility.yul\":6307:6370   */\n      tag_96\n      jump\t// in\n    tag_166:\n        /* \"#utility.yul\":6300:6370   */\n      swap8\n      pop\n        /* \"#utility.yul\":6393:6453   */\n      tag_167\n        /* \"#utility.yul\":6446:6452   */\n      dup4\n        /* \"#utility.yul\":6393:6453   */\n      tag_97\n      jump\t// in\n    tag_167:\n        /* \"#utility.yul\":6383:6453   */\n      swap3\n      pop\n        /* \"#utility.yul\":6239:6463   */\n      pop\n        /* \"#utility.yul\":6226:6227   */\n      0x01\n        /* \"#utility.yul\":6223:6224   */\n      dup2\n        /* \"#utility.yul\":6219:6228   */\n      add\n        /* \"#utility.yul\":6214:6228   */\n      swap1\n      pop\n        /* \"#utility.yul\":6179:6463   */\n      jump(tag_163)\n    tag_165:\n        /* \"#utility.yul\":6183:6197   */\n      pop\n        /* \"#utility.yul\":6479:6482   */\n      dup6\n        /* \"#utility.yul\":6472:6482   */\n      swap4\n      pop\n        /* \"#utility.yul\":5880:6488   */\n      pop\n      pop\n      pop\n        /* \"#utility.yul\":5756:6488   */\n      swap3\n      swap2\n      pop\n      pop\n      jump\t// out\n        /* \"#utility.yul\":6494:6867   */\n    tag_25:\n        /* \"#utility.yul\":6637:6641   */\n      0x00\n        /* \"#utility.yul\":6675:6677   */\n      0x20\n        /* \"#utility.yul\":6664:6673   */\n      dup3\n        /* \"#utility.yul\":6660:6678   */\n      add\n        /* \"#utility.yul\":6652:6678   */\n      swap1\n      pop\n        /* \"#utility.yul\":6724:6733   */\n      dup2\n        /* \"#utility.yul\":6718:6722   */\n      dup2\n        /* \"#utility.yul\":6714:6734   */\n      sub\n        /* \"#utility.yul\":6710:6711   */\n      0x00\n        /* \"#utility.yul\":6699:6708   */\n      dup4\n        /* \"#utility.yul\":6695:6712   */\n      add\n        /* \"#utility.yul\":6688:6735   */\n      mstore\n        /* \"#utility.yul\":6752:6860   */\n      tag_169\n        /* \"#utility.yul\":6855:6859   */\n      dup2\n        /* \"#utility.yul\":6846:6852   */\n      dup5\n        /* \"#utility.yul\":6752:6860   */\n      tag_98\n      jump\t// in\n    tag_169:\n        /* \"#utility.yul\":6744:6860   */\n      swap1\n      pop\n        /* \"#utility.yul\":6494:6867   */\n      swap3\n      swap2\n      pop\n      pop\n      jump\t// out\n        /* \"#utility.yul\":6873:6991   */\n    tag_99:\n        /* \"#utility.yul\":6960:6984   */\n      tag_171\n        /* \"#utility.yul\":6978:6983   */\n      dup2\n        /* \"#utility.yul\":6960:6984   */\n      tag_83\n      jump\t// in\n    tag_171:\n        /* \"#utility.yul\":6955:6958   */\n      dup3\n        /* \"#utility.yul\":6948:6985   */\n      mstore\n        /* \"#utility.yul\":6873:6991   */\n      pop\n      pop\n      jump\t// out\n        /* \"#utility.yul\":6997:7219   */\n    tag_29:\n        /* \"#utility.yul\":7090:7094   */\n      0x00\n        /* \"#utility.yul\":7128:7130   */\n      0x20\n        /* \"#utility.yul\":7117:7126   */\n      dup3\n        /* \"#utility.yul\":7113:7131   */\n      add\n        /* \"#utility.yul\":7105:7131   */\n      swap1\n      pop\n        /* \"#utility.yul\":7141:7212   */\n      tag_173\n        /* \"#utility.yul\":7209:7210   */\n      0x00\n        /* \"#utility.yul\":7198:7207   */\n      dup4\n        /* \"#utility.yul\":7194:7211   */\n      add\n        /* \"#utility.yul\":7185:7191   */\n      dup5\n        /* \"#utility.yul\":7141:7212   */\n      tag_99\n      jump\t// in\n    tag_173:\n        /* \"#utility.yul\":6997:7219   */\n      swap3\n      swap2\n      pop\n      pop\n      jump\t// out\n        /* \"#utility.yul\":7225:7347   */\n    tag_100:\n        /* \"#utility.yul\":7298:7322   */\n      tag_175\n        /* \"#utility.yul\":7316:7321   */\n      dup2\n        /* \"#utility.yul\":7298:7322   */\n      tag_86\n      jump\t// in\n    tag_175:\n        /* \"#utility.yul\":7291:7296   */\n      dup2\n        /* \"#utility.yul\":7288:7323   */\n      eq\n        /* \"#utility.yul\":7278:7341   */\n      tag_176\n      jumpi\n        /* \"#utility.yul\":7337:7338   */\n      0x00\n        /* \"#utility.yul\":7334:7335   */\n      0x00\n        /* \"#utility.yul\":7327:7339   */\n      revert\n        /* \"#utility.yul\":7278:7341   */\n    tag_176:\n        /* \"#utility.yul\":7225:7347   */\n      pop\n      jump\t// out\n        /* \"#utility.yul\":7353:7496   */\n    tag_101:\n        /* \"#utility.yul\":7410:7415   */\n      0x00\n        /* \"#utility.yul\":7441:7447   */\n      dup2\n        /* \"#utility.yul\":7435:7448   */\n      mload\n        /* \"#utility.yul\":7426:7448   */\n      swap1\n      pop\n        /* \"#utility.yul\":7457:7490   */\n      tag_178\n        /* \"#utility.yul\":7484:7489   */\n      dup2\n        /* \"#utility.yul\":7457:7490   */\n      tag_100\n      jump\t// in\n    tag_178:\n        /* \"#utility.yul\":7353:7496   */\n      swap3\n      swap2\n      pop\n      pop\n      jump\t// out\n        /* \"#utility.yul\":7502:7853   */\n    tag_32:\n        /* \"#utility.yul\":7572:7578   */\n      0x00\n        /* \"#utility.yul\":7621:7623   */\n      0x20\n        /* \"#utility.yul\":7609:7618   */\n      dup3\n        /* \"#utility.yul\":7600:7607   */\n      dup5\n        /* \"#utility.yul\":7596:7619   */\n      sub\n        /* \"#utility.yul\":7592:7624   */\n      slt\n        /* \"#utility.yul\":7589:7708   */\n      iszero\n      tag_180\n      jumpi\n        /* \"#utility.yul\":7627:7706   */\n      tag_181\n      tag_80\n      jump\t// in\n    tag_181:\n        /* \"#utility.yul\":7589:7708   */\n    tag_180:\n        /* \"#utility.yul\":7747:7748   */\n      0x00\n        /* \"#utility.yul\":7772:7836   */\n      tag_182\n        /* \"#utility.yul\":7828:7835   */\n      dup5\n        /* \"#utility.yul\":7819:7825   */\n      dup3\n        /* \"#utility.yul\":7808:7817   */\n      dup6\n        /* \"#utility.yul\":7804:7826   */\n      add\n        /* \"#utility.yul\":7772:7836   */\n      tag_101\n      jump\t// in\n    tag_182:\n        /* \"#utility.yul\":7762:7836   */\n      swap2\n      pop\n        /* \"#utility.yul\":7718:7846   */\n      pop\n        /* \"#utility.yul\":7502:7853   */\n      swap3\n      swap2\n      pop\n      pop\n      jump\t// out\n        /* \"#utility.yul\":7859:8039   */\n    tag_102:\n        /* \"#utility.yul\":7907:7984   */\n      0x4e487b7100000000000000000000000000000000000000000000000000000000\n        /* \"#utility.yul\":7904:7905   */\n      0x00\n        /* \"#utility.yul\":7897:7985   */\n      mstore\n        /* \"#utility.yul\":8004:8008   */\n      0x11\n        /* \"#utility.yul\":8001:8002   */\n      0x04\n        /* \"#utility.yul\":7994:8009   */\n      mstore\n        /* \"#utility.yul\":8028:8032   */\n      0x24\n        /* \"#utility.yul\":8025:8026   */\n      0x00\n        /* \"#utility.yul\":8018:8033   */\n      revert\n        /* \"#utility.yul\":8045:8455   */\n    tag_41:\n        /* \"#utility.yul\":8085:8092   */\n      0x00\n        /* \"#utility.yul\":8108:8128   */\n      tag_185\n        /* \"#utility.yul\":8126:8127   */\n      dup3\n        /* \"#utility.yul\":8108:8128   */\n      tag_86\n      jump\t// in\n    tag_185:\n        /* \"#utility.yul\":8103:8128   */\n      swap2\n      pop\n        /* \"#utility.yul\":8142:8162   */\n      tag_186\n        /* \"#utility.yul\":8160:8161   */\n      dup4\n        /* \"#utility.yul\":8142:8162   */\n      tag_86\n      jump\t// in\n    tag_186:\n        /* \"#utility.yul\":8137:8162   */\n      swap3\n      pop\n        /* \"#utility.yul\":8197:8198   */\n      dup3\n        /* \"#utility.yul\":8194:8195   */\n      dup3\n        /* \"#utility.yul\":8190:8199   */\n      mul\n        /* \"#utility.yul\":8219:8249   */\n      tag_187\n        /* \"#utility.yul\":8237:8248   */\n      dup2\n        /* \"#utility.yul\":8219:8249   */\n      tag_86\n      jump\t// in\n    tag_187:\n        /* \"#utility.yul\":8208:8249   */\n      swap2\n      pop\n        /* \"#utility.yul\":8398:8399   */\n      dup3\n        /* \"#utility.yul\":8389:8396   */\n      dup3\n        /* \"#utility.yul\":8385:8400   */\n      div\n        /* \"#utility.yul\":8382:8383   */\n      dup5\n        /* \"#utility.yul\":8379:8401   */\n      eq\n        /* \"#utility.yul\":8359:8360   */\n      dup4\n        /* \"#utility.yul\":8352:8361   */\n      iszero\n        /* \"#utility.yul\":8332:8415   */\n      or\n        /* \"#utility.yul\":8309:8448   */\n      tag_188\n      jumpi\n        /* \"#utility.yul\":8428:8446   */\n      tag_189\n      tag_102\n      jump\t// in\n    tag_189:\n        /* \"#utility.yul\":8309:8448   */\n    tag_188:\n        /* \"#utility.yul\":8093:8455   */\n      pop\n        /* \"#utility.yul\":8045:8455   */\n      swap3\n      swap2\n      pop\n      pop\n      jump\t// out\n        /* \"#utility.yul\":8461:8641   */\n    tag_44:\n        /* \"#utility.yul\":8509:8586   */\n      0x4e487b7100000000000000000000000000000000000000000000000000000000\n        /* \"#utility.yul\":8506:8507   */\n      0x00\n        /* \"#utility.yul\":8499:8587   */\n      mstore\n        /* \"#utility.yul\":8606:8610   */\n      0x41\n        /* \"#utility.yul\":8603:8604   */\n      0x04\n        /* \"#utility.yul\":8596:8611   */\n      mstore\n        /* \"#utility.yul\":8630:8634   */\n      0x24\n        /* \"#utility.yul\":8627:8628   */\n      0x00\n        /* \"#utility.yul\":8620:8635   */\n      revert\n        /* \"#utility.yul\":8647:8838   */\n    tag_54:\n        /* \"#utility.yul\":8687:8690   */\n      0x00\n        /* \"#utility.yul\":8706:8726   */\n      tag_192\n        /* \"#utility.yul\":8724:8725   */\n      dup3\n        /* \"#utility.yul\":8706:8726   */\n      tag_86\n      jump\t// in\n    tag_192:\n        /* \"#utility.yul\":8701:8726   */\n      swap2\n      pop\n        /* \"#utility.yul\":8740:8760   */\n      tag_193\n        /* \"#utility.yul\":8758:8759   */\n      dup4\n        /* \"#utility.yul\":8740:8760   */\n      tag_86\n      jump\t// in\n    tag_193:\n        /* \"#utility.yul\":8735:8760   */\n      swap3\n      pop\n        /* \"#utility.yul\":8783:8784   */\n      dup3\n        /* \"#utility.yul\":8780:8781   */\n      dup3\n        /* \"#utility.yul\":8776:8785   */\n      add\n        /* \"#utility.yul\":8769:8785   */\n      swap1\n      pop\n        /* \"#utility.yul\":8804:8807   */\n      dup1\n        /* \"#utility.yul\":8801:8802   */\n      dup3\n        /* \"#utility.yul\":8798:8808   */\n      gt\n        /* \"#utility.yul\":8795:8831   */\n      iszero\n      tag_194\n      jumpi\n        /* \"#utility.yul\":8811:8829   */\n      tag_195\n      tag_102\n      jump\t// in\n    tag_195:\n        /* \"#utility.yul\":8795:8831   */\n    tag_194:\n        /* \"#utility.yul\":8647:8838   */\n      swap3\n      swap2\n      pop\n      pop\n      jump\t// out\n        /* \"#utility.yul\":8844:9024   */\n    tag_57:\n        /* \"#utility.yul\":8892:8969   */\n      0x4e487b7100000000000000000000000000000000000000000000000000000000\n        /* \"#utility.yul\":8889:8890   */\n      0x00\n        /* \"#utility.yul\":8882:8970   */\n      mstore\n        /* \"#utility.yul\":8989:8993   */\n      0x32\n        /* \"#utility.yul\":8986:8987   */\n      0x04\n        /* \"#utility.yul\":8979:8994   */\n      mstore\n        /* \"#utility.yul\":9013:9017   */\n      0x24\n        /* \"#utility.yul\":9010:9011   */\n      0x00\n        /* \"#utility.yul\":9003:9018   */\n      revert\n        /* \"#utility.yul\":9030:9359   */\n    tag_59:\n        /* \"#utility.yul\":9089:9095   */\n      0x00\n        /* \"#utility.yul\":9138:9140   */\n      0x20\n        /* \"#utility.yul\":9126:9135   */\n      dup3\n        /* \"#utility.yul\":9117:9124   */\n      dup5\n        /* \"#utility.yul\":9113:9136   */\n      sub\n        /* \"#utility.yul\":9109:9141   */\n      slt\n        /* \"#utility.yul\":9106:9225   */\n      iszero\n      tag_198\n      jumpi\n        /* \"#utility.yul\":9144:9223   */\n      tag_199\n      tag_80\n      jump\t// in\n    tag_199:\n        /* \"#utility.yul\":9106:9225   */\n    tag_198:\n        /* \"#utility.yul\":9264:9265   */\n      0x00\n        /* \"#utility.yul\":9289:9342   */\n      tag_200\n        /* \"#utility.yul\":9334:9341   */\n      dup5\n        /* \"#utility.yul\":9325:9331   */\n      dup3\n        /* \"#utility.yul\":9314:9323   */\n      dup6\n        /* \"#utility.yul\":9310:9332   */\n      add\n        /* \"#utility.yul\":9289:9342   */\n      tag_85\n      jump\t// in\n    tag_200:\n        /* \"#utility.yul\":9279:9342   */\n      swap2\n      pop\n        /* \"#utility.yul\":9235:9352   */\n      pop\n        /* \"#utility.yul\":9030:9359   */\n      swap3\n      swap2\n      pop\n      pop\n      jump\t// out\n\n    auxdata: 0xa264697066735822122031758aff326eece92533208ba52c5ac15c486edc3cb14dc7c5923e1c3e7a431164736f6c634300081f0033\n}\n",
				"bytecode": {
					"linkReferences": {},
					"object": "6080604052348015600e575f5ffd5b506108ba8061001c5f395ff3fe60806040526004361061002c575f3560e01c80631049334f146100a7578063f0002ea9146100e35761006c565b3661006c576040517f08c379a00000000000000000000000000000000000000000000000000000000081526004016100639061043c565b60405180910390fd5b6040517f08c379a000000000000000000000000000000000000000000000000000000000815260040161009e9061043c565b60405180910390fd5b3480156100b2575f5ffd5b506100cd60048036038101906100c891906104bc565b61011f565b6040516100da9190610512565b60405180910390f35b3480156100ee575f5ffd5b506101096004803603810190610104919061058c565b6101c2565b60405161011691906106c1565b60405180910390f35b5f5f823b90505f8111156101b7578273ffffffffffffffffffffffffffffffffffffffff166370a08231856040518263ffffffff1660e01b815260040161016691906106f0565b602060405180830381865afa9250505080156101a057506040513d601f19601f8201168201806040525081019061019d9190610733565b60015b6101ad575f9150506101bc565b80925050506101bc565b5f9150505b92915050565b60605f85859050848490506101d7919061078b565b67ffffffffffffffff8111156101f0576101ef6107cc565b5b60405190808252806020026020018201604052801561021e5781602001602082028036833780820191505090505b5090505f5f90505b868690508110156103af575f5f90505b858590508110156103a1575f8287879050610251919061078b565b8261025c91906107f9565b90505f73ffffffffffffffffffffffffffffffffffffffff168787848181106102885761028761082c565b5b905060200201602081019061029d9190610859565b73ffffffffffffffffffffffffffffffffffffffff1614610334576103108989858181106102ce576102cd61082c565b5b90506020020160208101906102e39190610859565b8888858181106102f6576102f561082c565b5b905060200201602081019061030b9190610859565b61011f565b8482815181106103235761032261082c565b5b602002602001018181525050610393565b8888848181106103475761034661082c565b5b905060200201602081019061035c9190610859565b73ffffffffffffffffffffffffffffffffffffffff16318482815181106103865761038561082c565b5b6020026020010181815250505b508080600101915050610236565b508080600101915050610226565b5080915050949350505050565b5f82825260208201905092915050565b7f42616c616e6365436865636b657220646f6573206e6f742061636365707420705f8201527f61796d656e747300000000000000000000000000000000000000000000000000602082015250565b5f6104266027836103bc565b9150610431826103cc565b604082019050919050565b5f6020820190508181035f8301526104538161041a565b9050919050565b5f5ffd5b5f5ffd5b5f73ffffffffffffffffffffffffffffffffffffffff82169050919050565b5f61048b82610462565b9050919050565b61049b81610481565b81146104a5575f5ffd5b50565b5f813590506104b681610492565b92915050565b5f5f604083850312156104d2576104d161045a565b5b5f6104df858286016104a8565b92505060206104f0858286016104a8565b9150509250929050565b5f819050919050565b61050c816104fa565b82525050565b5f6020820190506105255f830184610503565b92915050565b5f5ffd5b5f5ffd5b5f5ffd5b5f5f83601f84011261054c5761054b61052b565b5b8235905067ffffffffffffffff8111156105695761056861052f565b5b60208301915083602082028301111561058557610584610533565b5b9250929050565b5f5f5f5f604085870312156105a4576105a361045a565b5b5f85013567ffffffffffffffff8111156105c1576105c061045e565b5b6105cd87828801610537565b9450945050602085013567ffffffffffffffff8111156105f0576105ef61045e565b5b6105fc87828801610537565b925092505092959194509250565b5f81519050919050565b5f82825260208201905092915050565b5f819050602082019050919050565b61063c816104fa565b82525050565b5f61064d8383610633565b60208301905092915050565b5f602082019050919050565b5f61066f8261060a565b6106798185610614565b935061068483610624565b805f5b838110156106b457815161069b8882610642565b97506106a683610659565b925050600181019050610687565b5085935050505092915050565b5f6020820190508181035f8301526106d98184610665565b905092915050565b6106ea81610481565b82525050565b5f6020820190506107035f8301846106e1565b92915050565b610712816104fa565b811461071c575f5ffd5b50565b5f8151905061072d81610709565b92915050565b5f602082840312156107485761074761045a565b5b5f6107558482850161071f565b91505092915050565b7f4e487b71000000000000000000000000000000000000000000000000000000005f52601160045260245ffd5b5f610795826104fa565b91506107a0836104fa565b92508282026107ae816104fa565b915082820484148315176107c5576107c461075e565b5b5092915050565b7f4e487b71000000000000000000000000000000000000000000000000000000005f52604160045260245ffd5b5f610803826104fa565b915061080e836104fa565b92508282019050808211156108265761082561075e565b5b92915050565b7f4e487b71000000000000000000000000000000000000000000000000000000005f52603260045260245ffd5b5f6020828403121561086e5761086d61045a565b5b5f61087b848285016104a8565b9150509291505056fea264697066735822122031758aff326eece92533208ba52c5ac15c486edc3cb14dc7c5923e1c3e7a431164736f6c634300081f0033",
					"opcodes": "PUSH1 0x80 PUSH1 0x40 MSTORE CALLVALUE DUP1 ISZERO PUSH1 0xE JUMPI PUSH0 PUSH0 REVERT JUMPDEST POP PUSH2 0x8BA DUP1 PUSH2 0x1C PUSH0 CODECOPY PUSH0 RETURN INVALID PUSH1 0x80 PUSH1 0x40 MSTORE PUSH1 0x4 CALLDATASIZE LT PUSH2 0x2C JUMPI PUSH0 CALLDATALOAD PUSH1 0xE0 SHR DUP1 PUSH4 0x1049334F EQ PUSH2 0xA7 JUMPI DUP1 PUSH4 0xF0002EA9 EQ PUSH2 0xE3 JUMPI PUSH2 0x6C JUMP JUMPDEST CALLDATASIZE PUSH2 0x6C JUMPI PUSH1 0x40 MLOAD PUSH32 0x8C379A000000000000000000000000000000000000000000000000000000000 DUP2 MSTORE PUSH1 0x4 ADD PUSH2 0x63 SWAP1 PUSH2 0x43C JUMP JUMPDEST PUSH1 0x40 MLOAD DUP1 SWAP2 SUB SWAP1 REVERT JUMPDEST PUSH1 0x40 MLOAD PUSH32 0x8C379A000000000000000000000000000000000000000000000000000000000 DUP2 MSTORE PUSH1 0x4 ADD PUSH2 0x9E SWAP1 PUSH2 0x43C JUMP JUMPDEST PUSH1 0x40 MLOAD DUP1 SWAP2 SUB SWAP1 REVERT JUMPDEST CALLVALUE DUP1 ISZERO PUSH2 0xB2 JUMPI PUSH0 PUSH0 REVERT JUMPDEST POP PUSH2 0xCD PUSH1 0x4 DUP1 CALLDATASIZE SUB DUP2 ADD SWAP1 PUSH2 0xC8 SWAP2 SWAP1 PUSH2 0x4BC JUMP JUMPDEST PUSH2 0x11F JUMP JUMPDEST PUSH1 0x40 MLOAD PUSH2 0xDA SWAP2 SWAP1 PUSH2 0x512 JUMP JUMPDEST PUSH1 0x40 MLOAD DUP1 SWAP2 SUB SWAP1 RETURN JUMPDEST CALLVALUE DUP1 ISZERO PUSH2 0xEE JUMPI PUSH0 PUSH0 REVERT JUMPDEST POP PUSH2 0x109 PUSH1 0x4 DUP1 CALLDATASIZE SUB DUP2 ADD SWAP1 PUSH2 0x104 SWAP2 SWAP1 PUSH2 0x58C JUMP JUMPDEST PUSH2 0x1C2 JUMP JUMPDEST PUSH1 0x40 MLOAD PUSH2 0x116 SWAP2 SWAP1 PUSH2 0x6C1 JUMP JUMPDEST PUSH1 0x40 MLOAD DUP1 SWAP2 SUB SWAP1 RETURN JUMPDEST PUSH0 PUSH0 DUP3 EXTCODESIZE SWAP1 POP PUSH0 DUP2 GT ISZERO PUSH2 0x1B7 JUMPI DUP3 PUSH20 0xFFFFFFFFFFFFFFFFFFFFFFFFFFFFFFFFFFFFFFFF AND PUSH4 0x70A08231 DUP6 PUSH1 0x40 MLOAD DUP3 PUSH4 0xFFFFFFFF AND PUSH1 0xE0 SHL DUP2 MSTORE PUSH1 0x4 ADD PUSH2 0x166 SWAP2 SWAP1 PUSH2 0x6F0 JUMP JUMPDEST PUSH1 0x20 PUSH1 0x40 MLOAD DUP1 DUP4 SUB DUP2 DUP7 GAS STATICCALL SWAP3 POP POP POP DUP1 ISZERO PUSH2 0x1A0 JUMPI POP PUSH1 0x40 MLOAD RETURNDATASIZE PUSH1 0x1F NOT PUSH1 0x1F DUP3 ADD AND DUP3 ADD DUP1 PUSH1 0x40 MSTORE POP DUP2 ADD SWAP1 PUSH2 0x19D SWAP2 SWAP1 PUSH2 0x733 JUMP JUMPDEST PUSH1 0x1 JUMPDEST PUSH2 0x1AD JUMPI PUSH0 SWAP2 POP POP PUSH2 0x1BC JUMP JUMPDEST DUP1 SWAP3 POP POP POP PUSH2 0x1BC JUMP JUMPDEST PUSH0 SWAP2 POP POP JUMPDEST SWAP3 SWAP2 POP POP JUMP JUMPDEST PUSH1 0x60 PUSH0 DUP6 DUP6 SWAP1 POP DUP5 DUP5 SWAP1 POP PUSH2 0x1D7 SWAP2 SWAP1 PUSH2 0x78B JUMP JUMPDEST PUSH8 0xFFFFFFFFFFFFFFFF DUP2 GT ISZERO PUSH2 0x1F0 JUMPI PUSH2 0x1EF PUSH2 0x7CC JUMP JUMPDEST JUMPDEST PUSH1 0x40 MLOAD SWAP1 DUP1 DUP3 MSTORE DUP1 PUSH1 0x20 MUL PUSH1 0x20 ADD DUP3 ADD PUSH1 0x40 MSTORE DUP1 ISZERO PUSH2 0x21E JUMPI DUP2 PUSH1 0x20 ADD PUSH1 0x20 DUP3 MUL DUP1 CALLDATASIZE DUP4 CALLDATACOPY DUP1 DUP3 ADD SWAP2 POP POP SWAP1 POP JUMPDEST POP SWAP1 POP PUSH0 PUSH0 SWAP1 POP JUMPDEST DUP7 DUP7 SWAP1 POP DUP2 LT ISZERO PUSH2 0x3AF JUMPI PUSH0 PUSH0 SWAP1 POP JUMPDEST DUP6 DUP6 SWAP1 POP DUP2 LT ISZERO PUSH2 0x3A1 JUMPI PUSH0 DUP3 DUP8 DUP8 SWAP1 POP PUSH2 0x251 SWAP2 SWAP1 PUSH2 0x78B JUMP JUMPDEST DUP3 PUSH2 0x25C SWAP2 SWAP1 PUSH2 0x7F9 JUMP JUMPDEST SWAP1 POP PUSH0 PUSH20 0xFFFFFFFFFFFFFFFFFFFFFFFFFFFFFFFFFFFFFFFF AND DUP8 DUP8 DUP5 DUP2 DUP2 LT PUSH2 0x288 JUMPI PUSH2 0x287 PUSH2 0x82C JUMP JUMPDEST JUMPDEST SWAP1 POP PUSH1 0x20 MUL ADD PUSH1 0x20 DUP2 ADD SWAP1 PUSH2 0x29D SWAP2 SWAP1 PUSH2 0x859 JUMP JUMPDEST PUSH20 0xFFFFFFFFFFFFFFFFFFFFFFFFFFFFFFFFFFFFFFFF AND EQ PUSH2 0x334 JUMPI PUSH2 0x310 DUP10 DUP10 DUP6 DUP2 DUP2 LT PUSH2 0x2CE JUMPI PUSH2 0x2CD PUSH2 0x82C JUMP JUMPDEST JUMPDEST SWAP1 POP PUSH1 0x20 MUL ADD PUSH1 0x20 DUP2 ADD SWAP1 PUSH2 0x2E3 SWAP2 SWAP1 PUSH2 0x859 JUMP JUMPDEST DUP9 DUP9 DUP6 DUP2 DUP2 LT PUSH2 0x2F6 JUMPI PUSH2 0x2F5 PUSH2 0x82C JUMP JUMPDEST JUMPDEST SWAP1 POP PUSH1 0x20 MUL ADD PUSH1 0x20 DUP2 ADD SWAP1 PUSH2 0x30B SWAP2 SWAP1 PUSH2 0x859 JUMP JUMPDEST PUSH2 0x11F JUMP JUMPDEST DUP5 DUP3 DUP2 MLOAD DUP2 LT PUSH2 0x323 JUMPI PUSH2 0x322 PUSH2 0x82C JUMP JUMPDEST JUMPDEST PUSH1 0x20 MUL PUSH1 0x20 ADD ADD DUP2 DUP2 MSTORE POP POP PUSH2 0x393 JUMP JUMPDEST DUP9 DUP9 DUP5 DUP2 DUP2 LT PUSH2 0x347 JUMPI PUSH2 0x346 PUSH2 0x82C JUMP JUMPDEST JUMPDEST SWAP1 POP PUSH1 0x20 MUL ADD PUSH1 0x20 DUP2 ADD SWAP1 PUSH2 0x35C SWAP2 SWAP1 PUSH2 0x859 JUMP JUMPDEST PUSH20 0xFFFFFFFFFFFFFFFFFFFFFFFFFFFFFFFFFFFFFFFF AND BALANCE DUP5 DUP3 DUP2 MLOAD DUP2 LT PUSH2 0x386 JUMPI PUSH2 0x385 PUSH2 0x82C JUMP JUMPDEST JUMPDEST PUSH1 0x20 MUL PUSH1 0x20 ADD ADD DUP2 DUP2 MSTORE POP POP JUMPDEST POP DUP1 DUP1 PUSH1 0x1 ADD SWAP2 POP POP PUSH2 0x236 JUMP JUMPDEST POP DUP1 DUP1 PUSH1 0x1 ADD SWAP2 POP POP PUSH2 0x226 JUMP JUMPDEST POP DUP1 SWAP2 POP POP SWAP5 SWAP4 POP POP POP POP JUMP JUMPDEST PUSH0 DUP3 DUP3 MSTORE PUSH1 0x20 DUP3 ADD SWAP1 POP SWAP3 SWAP2 POP POP JUMP JUMPDEST PUSH32 0x42616C616E6365436865636B657220646F6573206E6F74206163636570742070 PUSH0 DUP3 ADD MSTORE PUSH32 0x61796D656E747300000000000000000000000000000000000000000000000000 PUSH1 0x20 DUP3 ADD MSTORE POP JUMP JUMPDEST PUSH0 PUSH2 0x426 PUSH1 0x27 DUP4 PUSH2 0x3BC JUMP JUMPDEST SWAP2 POP PUSH2 0x431 DUP3 PUSH2 0x3CC JUMP JUMPDEST PUSH1 0x40 DUP3 ADD SWAP1 POP SWAP2 SWAP1 POP JUMP JUMPDEST PUSH0 PUSH1 0x20 DUP3 ADD SWAP1 POP DUP2 DUP2 SUB PUSH0 DUP4 ADD MSTORE PUSH2 0x453 DUP2 PUSH2 0x41A JUMP JUMPDEST SWAP1 POP SWAP2 SWAP1 POP JUMP JUMPDEST PUSH0 PUSH0 REVERT JUMPDEST PUSH0 PUSH0 REVERT JUMPDEST PUSH0 PUSH20 0xFFFFFFFFFFFFFFFFFFFFFFFFFFFFFFFFFFFFFFFF DUP3 AND SWAP1 POP SWAP2 SWAP1 POP JUMP JUMPDEST PUSH0 PUSH2 0x48B DUP3 PUSH2 0x462 JUMP JUMPDEST SWAP1 POP SWAP2 SWAP1 POP JUMP JUMPDEST PUSH2 0x49B DUP2 PUSH2 0x481 JUMP JUMPDEST DUP2 EQ PUSH2 0x4A5 JUMPI PUSH0 PUSH0 REVERT JUMPDEST POP JUMP JUMPDEST PUSH0 DUP2 CALLDATALOAD SWAP1 POP PUSH2 0x4B6 DUP2 PUSH2 0x492 JUMP JUMPDEST SWAP3 SWAP2 POP POP JUMP JUMPDEST PUSH0 PUSH0 PUSH1 0x40 DUP4 DUP6 SUB SLT ISZERO PUSH2 0x4D2 JUMPI PUSH2 0x4D1 PUSH2 0x45A JUMP JUMPDEST JUMPDEST PUSH0 PUSH2 0x4DF DUP6 DUP3 DUP7 ADD PUSH2 0x4A8 JUMP JUMPDEST SWAP3 POP POP PUSH1 0x20 PUSH2 0x4F0 DUP6 DUP3 DUP7 ADD PUSH2 0x4A8 JUMP JUMPDEST SWAP2 POP POP SWAP3 POP SWAP3 SWAP1 POP JUMP JUMPDEST PUSH0 DUP2 SWAP1 POP SWAP2 SWAP1 POP JUMP JUMPDEST PUSH2 0x50C DUP2 PUSH2 0x4FA JUMP JUMPDEST DUP3 MSTORE POP POP JUMP JUMPDEST PUSH0 PUSH1 0x20 DUP3 ADD SWAP1 POP PUSH2 0x525 PUSH0 DUP4 ADD DUP5 PUSH2 0x503 JUMP JUMPDEST SWAP3 SWAP2 POP POP JUMP JUMPDEST PUSH0 PUSH0 REVERT JUMPDEST PUSH0 PUSH0 REVERT JUMPDEST PUSH0 PUSH0 REVERT JUMPDEST PUSH0 PUSH0 DUP4 PUSH1 0x1F DUP5 ADD SLT PUSH2 0x54C JUMPI PUSH2 0x54B PUSH2 0x52B JUMP JUMPDEST JUMPDEST DUP3 CALLDATALOAD SWAP1 POP PUSH8 0xFFFFFFFFFFFFFFFF DUP2 GT ISZERO PUSH2 0x569 JUMPI PUSH2 0x568 PUSH2 0x52F JUMP JUMPDEST JUMPDEST PUSH1 0x20 DUP4 ADD SWAP2 POP DUP4 PUSH1 0x20 DUP3 MUL DUP4 ADD GT ISZERO PUSH2 0x585 JUMPI PUSH2 0x584 PUSH2 0x533 JUMP JUMPDEST JUMPDEST SWAP3 POP SWAP3 SWAP1 POP JUMP JUMPDEST PUSH0 PUSH0 PUSH0 PUSH0 PUSH1 0x40 DUP6 DUP8 SUB SLT ISZERO PUSH2 0x5A4 JUMPI PUSH2 0x5A3 PUSH2 0x45A JUMP JUMPDEST JUMPDEST PUSH0 DUP6 ADD CALLDATALOAD PUSH8 0xFFFFFFFFFFFFFFFF DUP2 GT ISZERO PUSH2 0x5C1 JUMPI PUSH2 0x5C0 PUSH2 0x45E JUMP JUMPDEST JUMPDEST PUSH2 0x5CD DUP8 DUP3 DUP9 ADD PUSH2 0x537 JUMP JUMPDEST SWAP5 POP SWAP5 POP POP PUSH1 0x20 DUP6 ADD CALLDATALOAD PUSH8 0xFFFFFFFFFFFFFFFF DUP2 GT ISZERO PUSH2 0x5F0 JUMPI PUSH2 0x5EF PUSH2 0x45E JUMP JUMPDEST JUMPDEST PUSH2 0x5FC DUP8 DUP3 DUP9 ADD PUSH2 0x537 JUMP JUMPDEST SWAP3 POP SWAP3 POP POP SWAP3 SWAP6 SWAP2 SWAP5 POP SWAP3 POP JUMP JUMPDEST PUSH0 DUP2 MLOAD SWAP1 POP SWAP2 SWAP1 POP JUMP JUMPDEST PUSH0 DUP3 DUP3 MSTORE PUSH1 0x20 DUP3 ADD SWAP1 POP SWAP3 SWAP2 POP POP JUMP JUMPDEST PUSH0 DUP2 SWAP1 POP PUSH1 0x20 DUP3 ADD SWAP1 POP SWAP2 SWAP1 POP JUMP JUMPDEST PUSH2 0x63C DUP2 PUSH2 0x4FA JUMP JUMPDEST DUP3 MSTORE POP POP JUMP JUMPDEST PUSH0 PUSH2 0x64D DUP4 DUP4 PUSH2 0x633 JUMP JUMPDEST PUSH1 0x20 DUP4 ADD SWAP1 POP SWAP3 SWAP2 POP POP JUMP JUMPDEST PUSH0 PUSH1 0x20 DUP3 ADD SWAP1 POP SWAP2 SWAP1 POP JUMP JUMPDEST PUSH0 PUSH2 0x66F DUP3 PUSH2 0x60A JUMP JUMPDEST PUSH2 0x679 DUP2 DUP6 PUSH2 0x614 JUMP JUMPDEST SWAP4 POP PUSH2 0x684 DUP4 PUSH2 0x624 JUMP JUMPDEST DUP1 PUSH0 JUMPDEST DUP4 DUP2 LT ISZERO PUSH2 0x6B4 JUMPI DUP2 MLOAD PUSH2 0x69B DUP9 DUP3 PUSH2 0x642 JUMP JUMPDEST SWAP8 POP PUSH2 0x6A6 DUP4 PUSH2 0x659 JUMP JUMPDEST SWAP3 POP POP PUSH1 0x1 DUP2 ADD SWAP1 POP PUSH2 0x687 JUMP JUMPDEST POP DUP6 SWAP4 POP POP POP POP SWAP3 SWAP2 POP POP JUMP JUMPDEST PUSH0 PUSH1 0x20 DUP3 ADD SWAP1 POP DUP2 DUP2 SUB PUSH0 DUP4 ADD MSTORE PUSH2 0x6D9 DUP2 DUP5 PUSH2 0x665 JUMP JUMPDEST SWAP1 POP SWAP3 SWAP2 POP POP JUMP JUMPDEST PUSH2 0x6EA DUP2 PUSH2 0x481 JUMP JUMPDEST DUP3 MSTORE POP POP JUMP JUMPDEST PUSH0 PUSH1 0x20 DUP3 ADD SWAP1 POP PUSH2 0x703 PUSH0 DUP4 ADD DUP5 PUSH2 0x6E1 JUMP JUMPDEST SWAP3 SWAP2 POP POP JUMP JUMPDEST PUSH2 0x712 DUP2 PUSH2 0x4FA JUMP JUMPDEST DUP2 EQ PUSH2 0x71C JUMPI PUSH0 PUSH0 REVERT JUMPDEST POP JUMP JUMPDEST PUSH0 DUP2 MLOAD SWAP1 POP PUSH2 0x72D DUP2 PUSH2 0x709 JUMP JUMPDEST SWAP3 SWAP2 POP POP JUMP JUMPDEST PUSH0 PUSH1 0x20 DUP3 DUP5 SUB SLT ISZERO PUSH2 0x748 JUMPI PUSH2 0x747 PUSH2 0x45A JUMP JUMPDEST JUMPDEST PUSH0 PUSH2 0x755 DUP5 DUP3 DUP6 ADD PUSH2 0x71F JUMP JUMPDEST SWAP2 POP POP SWAP3 SWAP2 POP POP JUMP JUMPDEST PUSH32 0x4E487B7100000000000000000000000000000000000000000000000000000000 PUSH0 MSTORE PUSH1 0x11 PUSH1 0x4 MSTORE PUSH1 0x24 PUSH0 REVERT JUMPDEST PUSH0 PUSH2 0x795 DUP3 PUSH2 0x4FA JUMP JUMPDEST SWAP2 POP PUSH2 0x7A0 DUP4 PUSH2 0x4FA JUMP JUMPDEST SWAP3 POP DUP3 DUP3 MUL PUSH2 0x7AE DUP2 PUSH2 0x4FA JUMP JUMPDEST SWAP2 POP DUP3 DUP3 DIV DUP5 EQ DUP4 ISZERO OR PUSH2 0x7C5 JUMPI PUSH2 0x7C4 PUSH2 0x75E JUMP JUMPDEST JUMPDEST POP SWAP3 SWAP2 POP POP JUMP JUMPDEST PUSH32 0x4E487B7100000000000000000000000000000000000000000000000000000000 PUSH0 MSTORE PUSH1 0x41 PUSH1 0x4 MSTORE PUSH1 0x24 PUSH0 REVERT JUMPDEST PUSH0 PUSH2 0x803 DUP3 PUSH2 0x4FA JUMP JUMPDEST SWAP2 POP PUSH2 0x80E DUP4 PUSH2 0x4FA JUMP JUMPDEST SWAP3 POP DUP3 DUP3 ADD SWAP1 POP DUP1 DUP3 GT ISZERO PUSH2 0x826 JUMPI PUSH2 0x825 PUSH2 0x75E JUMP JUMPDEST JUMPDEST SWAP3 SWAP2 POP POP JUMP JUMPDEST PUSH32 0x4E487B7100000000000000000000000000000000000000000000000000000000 PUSH0 MSTORE PUSH1 0x32 PUSH1 0x4 MSTORE PUSH1 0x24 PUSH0 REVERT JUMPDEST PUSH0 PUSH1 0x20 DUP3 DUP5 SUB SLT ISZERO PUSH2 0x86E JUMPI PUSH2 0x86D PUSH2 0x45A JUMP JUMPDEST JUMPDEST PUSH0 PUSH2 0x87B DUP5 DUP3 DUP6 ADD PUSH2 0x4A8 JUMP JUMPDEST SWAP2 POP POP SWAP3 SWAP2 POP POP JUMP INVALID LOG2 PUSH5 0x6970667358 0x22 SLT KECCAK256 BALANCE PUSH22 0x8AFF326EECE92533208BA52C5AC15C486EDC3CB14DC7 0xC5 SWAP3 RETURNDATACOPY SHR RETURNDATACOPY PUSH27 0x431164736F6C634300081F00330000000000000000000000000000 "
				},
				"gasEstimates": {
					"creation": {
						"codeDepositCost": "446800",
						"executionCost": "478",
						"totalCost": "447278"
					},
					"external": {
						"": "418",
						"balances(address[],address[])": "infinite",
						"tokenBalance(address,address)": "infinite"
					}
				},
				"methodIdentifiers": {
					"balances(address[],address[])": "f0002ea9",
					"tokenBalance(address,address)": "1049334f"
				}
			},
			"storageLayout": {
				"storage": [],
				"types": null
			},
			"userdoc": {
				"kind": "user",
				"methods": {},
				"version": 1
			}
		}
	}
}